:020000040800F2
:1000000000000220E99000083991000839910008A9
:10001000399100083991000839910008000000006A
:1000200000000000000000000000000039910008FE
:1000300039910008000000003991000849280008A3
:100040003991000839910008399100083991000868
:100050003991000839910008399100083991000858
:100060003991000839910008399100083991000848
:100070003991000839910008399100083991000838
:100080003991000839910008399100083991000828
:100090003991000839910008399100083991000818
:1000A0003991000839910008399100083991000808
:1000B00039910008399100083991000839910008F8
:1000C00039910008399100083991000839910008E8
:1000D00039910008399100083991000839910008D8
:1000E00039910008399100083991000839910008C8
:1000F00039910008399100083991000839910008B8
:1001000039910008399100083991000839910008A7
:100110003991000839910008399100083991000897
:100120003991000839910008399100083991000887
:100130003991000839910008399100083991000877
:100140003991000839910008399100083991000867
:100150003991000839910008399100083991000857
:100160003991000839910008B1080008A508000875
:1001700031080008990800083991000839910008F1
:100180003991000839910008399100083991000827
:100190003991000839910008399100083991000817
:0C01A000399100083991000839910008DD
:1001AC0010B5054C237833B9044B13B10448AFF3A5
:1001BC0000800123237010BD4805002000000000C2
:1001CC00B0BD000808B5064B1BB106480649AFF395
:1001DC0000800648036813B1054B03B1984708BD6E
:1001EC0000000000B0BD00084C05002044050020B4
:1001FC0000000000154B002B08BF134B9D46A3F5C8
:10020C00803A00218B460F461348144A121A08F004
:10021C00C7FF0F4B002B00D098470E4B002B00D084
:10022C0098470020002104000D000D48002802D042
:10023C000C4809F081F808F08BFF2000290008F029
:10024C0003FF08F075FF00BF00000800000000006D
:10025C00000000000000000048050020E40B002016
:10026C00459300085193000802484FF4005103F0E5
:10027C007FBA00BF0018024002484FF4005103F04F
:10028C0079BA00BF0018024002484FF4804103F0D5
:10029C006FBA00BF0018024002484FF4804103F0CF
:1002AC0069BA00BF00180240064B074900221A60C9
:1002BC001A688A4205DC1A6801321A601A688A4286
:1002CC00F9DD7047640500203F420F0010B582B085
:1002DC0000F096F888B101281CD0022824D00328FD
:1002EC001AD004281AD005281AD006281AD0124A77
:1002FC00124B072808BF1A4600E0114A00234FF69C
:10030C00FF7418460093194601940E4B01F00AFA3B
:10031C0002B010BD0C4AF1E70C4AEFE70C4AEDE7CE
:10032C000C4AEBE70C4AE9E70C484FF4804103F028
:10033C001FFA0B4AE2E700BFDCBC0008CCBC00088B
:10034C005CBC0008AC0000206CBC00088CBC000835
:10035C009CBC0008ACBC0008BCBC000800180240E7
:10036C007CBC000800B583B003F0D8FF012003F07B
:10037C00FDFF04F003F810B903B05DF804FB07238C
:10038C004FF4A87200934FF480000821022304F06C
:10039C0037F8012004F046F80B4A13689B01FCD592
:1003AC00022004F083F8002004F092F84FF4A050DF
:1003BC0004F098F84FF4805004F09EF803B05DF808
:1003CC0004EB06F063BE00BF0038024000B583B0FA
:1003DC00064B00930648074A074B002108F038F9F2
:1003EC00064B0720187003B05DF804FB900000204A
:1003FC0090050020740000202000002068050020DB
:10040C00014B1878704700BF68050020002070472A
:10041C0070B5094B094A5E7882B000204FF6FF7523
:10042C000C468DE82100710001F07CF90448192379
:10043C00238002B070BD00BFAC000020ECBC0008F3
:10044C000400002030B5084B084A597883B00024CA
:10045C004FF6FF75204601EB41010094019501F028
:10046C0061F9204603B030BDAC000020F8BC000898
:10047C0030B5074B074A597883B000244FF6FF7507
:10048C0020460094019501F04DF9204603B030BD93
:10049C00AC00002000BD000810B582B000244FF65F
:1004AC00FF732046019300942146034A034B01F04D
:1004BC0039F9204602B010BD0CBD0008AC0000207C
:1004CC0038B50C46094B4A881A800121054607F0BD
:1004DC007DFC62884FF4164303FB02F2284602F1BE
:1004EC005042012107F0FCFB002038BD8C05002098
:1004FC0070B50B4B0B4A597882B000244FF6FF763F
:10050C00054601EBC10120460094019601F00AF961
:10051C002846012107F0C8FB204602B070BD00BF81
:10052C00AC00002018BD000870B50C4B0C4A597873
:10053C0082B000244FF6FF76054601EBC101204640
:10054C000094019601F0EEF8284601214022022386
:10055C0007F082FB204602B070BD00BFAC0000204B
:10056C0020BD000812230B8000487047500000206B
:10057C0004230B80004870476400002010B5044C25
:10058C0004480A46214600F0EBFB204610BD00BF94
:10059C00840B002028BD000808B50A4628B106487F
:1005AC00064900F0DDFB054808BD0548034900F08D
:1005BC00D7FB024808BD00BF4CBD0008840B0020CF
:1005CC0034BD000808B50A4628B10648064900F0B3
:1005DC00C7FB054808BD0548034900F0C1FB0248AC
:1005EC0008BD00BF74BD0008840B002064BD00086A
:1005FC0010B5044C04480A46214600F0B1FB2046D5
:10060C0010BD00BF840B002084BD000810B5044C45
:10061C0004480A46214600F0A3FB204610BD00BF4B
:10062C00840B002094BD0008014B02221A70704705
:10063C0068050020014B07221A70704768050020DE
:10064C00014B06221A70704768050020014B0122ED
:10065C001A70704768050020014B02221A7070470F
:10066C0068050020014B04221A70704768050020B1
:10067C00014B05221A70704768050020F0B5384D03
:10068C0087B00220012103F0F7FF0327022328463D
:10069C0002A94FF440428DF80C3002928DF80D7087
:1006AC0002F0D8FF28460E210C2203F071F80C2220
:1006BC0028460F2103F06CF801240026284602A9D5
:1006CC004FF4005302938DF80D708DF80C608DF87B
:1006DC000F608DF80E4002F0BDFF4FF4805302A95D
:1006EC00204802938DF80D708DF80E408DF80F4058
:1006FC0002F0B0FF0C210A46284603F049F82146C7
:10070C004FF0005003F0B8FF21464FF0805004F03A
:10071C0013F84FF4801002F03FFB4FF480150823C0
:10072C0004A88DF815308DF814608DF816400495DA
:10073C0002F0C8FA284602F02FFB04234C220DEBE2
:10074C0003008DF804208DF806308DF805408DF8E7
:10075C00074006F0ADFB284602F01EFB07B0F0BDCB
:10076C00000402400000024010B54FF4C06082B09B
:10077C0006F094FB01244D22032301A88DF80420DC
:10078C008DF806308DF805408DF8074006F090FB8B
:10079C004FF4C06006F082FB4A22022301A88DF8B8
:1007AC0004208DF806308DF805408DF8074006F0D2
:1007BC007FFB4FF4C06006F071FB4B2301A88DF852
:1007CC0005408DF806408DF807408DF8043006F092
:1007DC006FFB02B010BD00BFC0EB0010064BC20097
:1007EC00A3FB0213D21A03EB52029208002301332B
:1007FC009A42FCD2704700BF25499224074A084B05
:10080C0002FB00F0A3FB0023C21A03EB5202920876
:10081C00002301339A42FCD2704700BFC0D40100C0
:10082C002549922408B5174B9B7A2BB94FF48010AD
:10083C00BDE8084002F0B0BA134B1A6922F0060268
:10084C001A61012003F092FD312003F0E1FF002832
:10085C00FAD0012003F0E6FD392003F0D9FF00287F
:10086C00FAD0022003F022FE03F02AFE0828FBD166
:10087C00044807F0F7F84FF48010BDE8084002F088
:10088C008BBA00BF9005002000ED00E0014807F096
:10089C0091BB00BF90050020014807F04FBB00BF83
:1008AC0090050020014807F021BB00BF90050020F7
:1008BC0090F8CC350B7090F8CD354B7090F8CF2567
:1008CC0090F8CE3503EB02234B8090F8D12590F8AD
:1008DC00D03503EB02238B8090F8D32590F8D235DA
:1008EC0003EB02239BB20122CB80C0F8403180F88D
:1008FC001121704710B58021044607F02BFA2046D1
:10090C00002107F027FA2046BDE8104007F066B832
:10091C0070B54B7882B00C460546092B0CD8DFE835
:10092C0003F031450B590B056F0B8512A3881BB9CE
:10093C00E388002B00F0898028462146FFF7DAFF78
:10094C00002002B070BDA178AF4E01293170F3D8F0
:10095C0090F81231022B00F09380032BECD100297C
:10096C0000F0738190F8101101292FD007F09AFE36
:10097C00317885F81011284607F088FE284607F0D4
:10098C00C9FEDDE790F812310122023B93424FF091
:10099C000301D1D89C4BD0F818019A6000B1996032
:1009AC0028469A49022207F085FEC9E790F81231D1
:1009BC00023B012BC0D86388012BC1D1D0F8E435A0
:1009CC0000229B68C0F8182121469847284607F05A
:1009DC00A1FEB5E76388012B00F02081022BAFD17B
:1009EC00A38813F0FF0FABD11B0A0269013B5268BD
:1009FC00042B00F2B680DFE803F0BDC1B1C9C5001D
:100A0C006288130A013B062B96D801A151F823F0FA
:100A1C000D0B0008EB0A0008570B000845090008ED
:100A2C00450900082F0B0008A90A0008E288012AD2
:100A3C0082D190F81231022B1ED0032B7FF47CAFA5
:100A4C0000F5887107F036FE7AE790F81231A67837
:100A5C00032B06F07F063FF46FAF80F8146131462C
:100A6C0007F0C2F9284607F055FE002E00F0C880AA
:100A7C00022385F8123163E7654907F01BFE5FE737
:100A8C000029A3D00121032380F8101180F8123122
:100A9C0007F0FCFD284607F03DFE51E78078002862
:100AAC007FF44AAFD5F8E4350DF10601DB6A9847BF
:100ABC00072301464370BDF80630002B3FF440AFCE
:100ACC00E288002A3FF43CAF934228BF13469BB206
:100ADC001A462846ADF8063007F0ECFD30E7D0F8A2
:100AEC00E43580789B6A0DF106019847AB78012BB1
:100AFC00014600F09E8002234B70C5F8F015DAE732
:100B0C00D0F8EC3580781B680DF106019847E28827
:100B1C00402A014603D095F81231012BCBD1082382
:100B2C00CFE7807800287FF407AFD5F8E4350DF1D6
:100B3C0006019B6A98473749867BC27B037C8B7185
:100B4C000E714A71E2880A23BBE7D2B2052A3FF63E
:100B5C00F3AEDFE802F04C433A31281F032363F372
:100B6C0006122D4B012185F8161128461A6007F044
:100B7C00D1FDE5E6012363F30612F2E7022363F3EA
:100B8C000612EEE7052363F30612EAE7042363F388
:100B9C000612E6E7D0F8EC3580789B690DF106017A
:100BAC009847014687E7D0F8EC3580785B690DF102
:100BBC000601984701467EE7D0F8EC3580781B6932
:100BCC000DF106019847014675E7D0F8EC358078B1
:100BDC00DB680DF10601984701466CE7D0F8EC355F
:100BEC0080789B680DF106019847014663E7D0F8C1
:100BFC00EC3580785B680DF10601984701465AE7A1
:100C0C00012385F812319BE66C0500207405002049
:100C1C007005002068000020E00B0020D0F8E425CF
:100C2C00C0F81831214693689847284607F072FDA2
:100C3C0086E6287A01287FF45EAFD5F8E4350DF10D
:100C4C000601DB6A9847014655E7022380F810112C
:100C5C0080F8123107F026FD284607F05BFD6FE6A1
:100C6C0038B590F81231032B04460D4602D10B799E
:100C7C00012B03D9FFF73EFE002038BDD0F8E43538
:100C8C009B689847EB88002BF6D1204607F042FD75
:100C9C00F2E700BF70B54B788A88012B0C460546ED
:100CAC00D6B224D019D3032B15D190F81231022BC4
:100CBC0017D0032B3ED14B8823B9730602D0314693
:100CCC0007F048F8D5F8E43521469B682846984744
:100CDC00284607F01FFD002070BD90F81231022B42
:100CEC0014D17206F7D0314607F034F8F3E790F8D8
:100CFC001231022BF5D0032B1CD14B88002BEAD1DF
:100D0C007106E5D0314607F043F8DBE7032B11D130
:100D1C00130613D406EB860600EBC60696F876335C
:100D2C00B3B90D4B0022DA6028460C49022207F0B9
:100D3C00C1FCD0E7FFF7DEFD002070BD06F07F069A
:100D4C0006EB860600EBC60696F81E31002BE8D0A3
:100D5C00014B0122DA60E7E76C05002078050020E2
:100D6C0030B4F0B10378F3B10446002314F8015FFA
:100D7C000133DBB2002DF9D15B000233DCB2032569
:100D8C0013800C704D7002785AB1022300255C1C44
:100D9C00E4B2CA540D5510F8012F0233DBB2002A0D
:100DAC00F5D130BC704702242346E8E72DE9F04F1B
:100DBC0085B004AC6F20012103F05EFC4FF40053AE
:100DCC0044F8083DDFF8A881DFF8A891644F654D21
:100DDC00654E4FF0010C4FF0000A4FF0030B21460B
:100DEC0040468DF80CC0CDF804C08DF80DB08DF8D0
:100DFC000EA08DF80FA002F02DFC042321464846CE
:100E0C00029302F027FCDDF804C08DF80FC02146D8
:100E1C0040464FF48052029202F01CFC5946384670
:100E2C000E2202F0B5FC384604210E2202F0B0FC72
:100E3C00384606210E2202F0ABFC38460B210E225E
:100E4C0002F0A6FC38460C210E2202F0A1FC514601
:100E5C002846092202F09CFCDDF804C028466146B5
:100E6C00092202F095FC284608210E2202F090FC83
:100E7C00284609210E2202F08BFC28460A210E225C
:100E8C0002F086FC28460B210E2202F081FC48461B
:100E9C0006210E2202F07CFC484607210E2202F0AD
:100EAC0077FC48460A210E2202F072FC4046594655
:100EBC000E2202F06DFC404606210E2202F068FC68
:100ECC002A480A210E2202F063FC304606210E222B
:100EDC0002F05EFC304607210E2202F059FC30462F
:100EEC000A21092202F054FC30460B210E2202F09A
:100EFC004FFC30460C21092202F04AFC02223846F3
:100F0C00214641F658038DF80C2002938DF80FA062
:100F1C0002F0A0FB2846214640F60373029302F030
:100F2C0099FB484621464FF49863029302F092FBDA
:100F3C00404621464823029302F08CFB21464FF495
:100F4C0080630A48029302F085FB4FF4E653214676
:100F5C003046029302F07EFB05B0BDE8F08F00BF77
:100F6C00000002400004024000180240001402403D
:100F7C00000C024000080240F0B54FF0806091B0C8
:100F8C00012103F0A9FB4FF40000012103F074FBD5
:100F9C000023C0200721042201930293039304939E
:100FAC000D930E930F9303F055FA4FF4803003F02A
:100FBC0051FB012003F05AFA3D2003F029FC0028D4
:100FCC00FAD04FF0090E40F2431140F2171240F2E2
:100FDC00471301271D26032540F20D1401A8CDF857
:100FEC0014E006970796089509940A910B920C93B6
:100FFC0002F05CFE11B0F0BD2DE9F047304E314DE2
:10100C0090B04FF01E0C40F20D1E042240F2431320
:10101C00002430466946FF27CDF800C0CDF804E027
:10102C0040F2E31C4FF4F07E029203934FF4A07253
:10103C004FF050434FF0020A4FF480694FF005080F
:10104C00CDF834C0CDF838E00F920C93CDF810A049
:10105C0005970694079408940994CDF82890CDF838
:10106C002C8002F0CDFE184B0C934FF4C06207237A
:10107C00694628460A920B9302F0C2FE012002F048
:10108C00B9FE3046012102F033FF0121284602F05F
:10109C002FFF012002F0AEFE012002F077FE0120AE
:1010AC0002F066FE3046394602F0CEFF2846214655
:1010BC0002F0CAFF012002F09DFE10B0BDE8F087DF
:1010CC008468014004690140005802D038B50A4CCC
:1010DC0005464FF40051094802F04CFB2046042110
:1010EC0002F048FB2946064800F0B8FF20460421D0
:1010FC00BDE8384002F03CBB00080240000C024046
:10110C000050014038B50A4C05464FF400510948CF
:10111C0002F02EFB2046042102F02CFB2946064847
:10112C0000F09CFF20460421BDE8384002F020BBB3
:10113C0000080240000C02400050014010B5CA20CB
:10114C00FFF7C4FFC320FFF7DDFF0820FFF7DAFF2E
:10115C005020FFF7D7FFCF20FFF7B8FF0020FFF795
:10116C00D1FFC120FFF7CEFF3020FFF7CBFFED20E2
:10117C00FFF7ACFF6420FFF7C5FF0320FFF7C2FFAA
:10118C001220FFF7BFFF8120FFF7BCFFE820FFF71D
:10119C009DFF8520FFF7B6FF0020FFF7B3FF7820F7
:1011AC00FFF7B0FFCB20FFF791FF3920FFF7AAFF25
:1011BC002C20FFF7A7FF0020FFF7A4FF3420FFF738
:1011CC00A1FF0220FFF79EFFF720FFF77FFF2020F3
:1011DC00FFF798FFEA20FFF779FF0020FFF792FF57
:1011EC000020FFF78FFFB120FFF770FF0020FFF703
:1011FC0089FF1B20FFF786FFB620FFF767FF0A2049
:10120C00FFF780FFA220FFF77DFFC020FFF75EFFF6
:10121C001020FFF777FFC120FFF758FF1020FFF7D2
:10122C0071FFC520FFF752FF4520FFF76BFF15201C
:10123C00FFF768FFC720FFF749FF9020FFF762FF19
:10124C003620FFF743FFC820FFF75CFFF220FFF7C3
:10125C003DFF0020FFF756FFB020FFF737FFC220FD
:10126C00FFF750FFB620FFF731FF0A20FFF74AFFC8
:10127C00A720FFF747FF2720FFF744FF0420FFF7C5
:10128C0041FF2A20FFF722FF0020FFF73BFF002041
:10129C00FFF738FF0020FFF735FFEF20FFF732FF95
:1012AC002B20FFF713FF0020FFF72CFF0020FFF788
:1012BC0029FF0120FFF726FF3F20FFF723FFF62031
:1012CC00FFF704FF0120FFF71DFF0020FFF71AFFB7
:1012DC000620FFF717FF2C20FFF7F8FE3A4C013CD5
:1012EC00FDD12620FFF7F2FE0120FFF70BFFE020D7
:1012FC00FFF7ECFE0F20FFF705FF2920FFF702FF99
:10130C002420FFF7FFFE0C20FFF7FCFE0E20FFF75A
:10131C00F9FE0920FFF7F6FE4E20FFF7F3FE7820CA
:10132C00FFF7F0FE3C20FFF7EDFE0920FFF7EAFE89
:10133C001320FFF7E7FE0520FFF7E4FE1720FFF769
:10134C00E1FE1120FFF7DEFE2046FFF7DBFEE12079
:10135C00FFF7BCFE2046FFF7D5FE1620FFF7D2FEA6
:10136C001B20FFF7CFFE0420FFF7CCFE1120FFF768
:10137C00C9FE0720FFF7C6FE3120FFF7C3FE33205E
:10138C00FFF7C0FE4220FFF7BDFE0520FFF7BAFEB7
:10139C000C20FFF7B7FE0A20FFF7B4FE2820FFF75A
:1013AC00B1FE2F20FFF7AEFE0F20FFF7ABFE112092
:1013BC00FFF78CFE044B013BFDD12920FFF786FE85
:1013CC002C20FFF783FE10BD40420F002DE9F041A9
:1013DC00FFF7ECFC1C48DFF88880042102F0C8F908
:1013EC0000211A4801F0C0F900F098FDFFF7A6FEA5
:1013FC00FFF7C2FDFFF700FE1548DFF868C0154B7C
:10140C0015490022F0274FF4A0760125FF24A8F8F7
:10141C000020ACF800208273826042730780468003
:10142C00057104734FF6FF7223F8022F8B42FBD128
:10143C000A494FF6FF7223F8022F8B42FBD100238F
:10144C004371BDE8F08100BF00080240005001402C
:10145C00C80B0020FEFFFFCFFE5702D0FEAF04D01A
:10146C00D80B0020C40B0020204B30B41C888442C5
:10147C0015D95D888D4212D99D7B95B1012D1CD05B
:10148C00022D23D0C0EB00109D680001C1F1EF01CB
:10149C0010FA81F305EB430303F150431A8030BC7F
:1014AC0070479B68C0F5963001FB140103EB4101BA
:1014BC0001F1504130BC0A8070479B6801FB04016C
:1014CC0003EB410303F150431A80E8E7C0F59F702A
:1014DC00013080B29C68C0EB001001EB001304EBF0
:1014EC00430303F150431A80D9E700BFC80B002017
:1014FC00054B064A996801F15043023B0A4423F814
:10150C00020F9342FBD17047C80B0020FE5702D04C
:10151C0082B00190019B2BB1019B013B0193019B7C
:10152C00002BF9D102B07047094B0128987307D9E9
:10153C004FF4A070F0210022188059801A71704766
:10154C00F0204FF4A0710122188059801A71704755
:10155C00C80B0020024B00229A605A71704700BFE2
:10156C00C80B0020034B4FF41631012299605A71BD
:10157C00704700BFC80B002010B5074C0748217BF3
:10158C0002F062FD617B064802F05EFD0120BDE8C1
:10159C00104002F02FBC00BFC80B00208468014033
:1015AC0004690140014B1873FFF7E6BFC80B00201C
:1015BC00014B5873FFF7E0BFC80B002038B50E4C39
:1015CC0063795BB10025FF23A56065712373FFF779
:1015DC00D3FF6573BDE83840FFF7CEBF4FF416312B
:1015EC0001222373A1606271FFF7C6FFFF236373AF
:1015FC00BDE83840FFF7C0BFC80B0020044A054BBC
:10160C00054833F8021F22F8021F8342F9D17047B4
:10161C00FEFFFFCFFE5702D0FEAF04D0044A054BAD
:10162C00104633F8021F22F8021F8342F9D170478B
:10163C00FE5702D0FEFFFFCF10B44C781C8003780D
:10164C003BB10C78002310F8011F23449BB20029F6
:10165C00F9D113805DF8044B704700BF2DE9F04FB2
:10166C002D4FDFF8BC802D4C3880A8F80010268850
:10167C000C46197883B01D464318B342BDF830A010
:10168C00BDF834903EDC6B788446002B35D0203A84
:10169C0001920024019A02FB03436A6832F813603A
:1016AC0039B34FF0000B0EE00CEB0B00214489B268
:1016BC0080B25246FFF7D8FE2978B7F800C00BF17C
:1016CC00010B594515D906FA0BF20CEB0B0012F471
:1016DC00004FB8F8001080B24A46E5D1214489B2D7
:1016EC00FFF7C2FE2978B7F800C00BF1010B594582
:1016FC00E9D86B780134A342CCD86144398003B06B
:10170C00BDE8F08F6B784FF0000C1C44A8F800403B
:10171C00A7F800C0B9E700BFC40B0020C80B00201D
:10172C00D80B00202DE9F04F83B0DFF86CB0194DC9
:10173C00BDF83080BDF834702980814614461E46B1
:10174C00ABF800004FF0000A227882B10A2A11D0BF
:10175C000D2A33461BD00134BBF800002988CDF884
:10176C0000800197FFF77AFF2278002AEED103B0B0
:10177C00BDE8F08F2B887278013313442B8063788B
:10178C000D2B06BFABF800A00134ABF80090013470
:10179C00DAE700BFD80B0020C40B00202DE9F04F76
:1017AC00DFF8F4E0BEF8006085B08642044698BFCE
:1017BC0006F1FF34039398BFA4B2BEF80230BDF813
:1017CC003870964215469CBF06F1FF35ADB2039AB0
:1017DC008B4298BF03F1FF3C894698BF1FFA8CF9E6
:1017EC00934202D8013B9BB20393AC4234BFC4EB8F
:1017FC000503C5EB04039BB20093039B99452ABFD9
:10180C00039BC9EB030AC3EB090A009B4FF6FF7B52
:10181C000FFA83F8AC422CBF5B4601231FFA8AFAFD
:10182C000193039B0FFA8AF6994538BF4FF0010BD1
:10183C00B045CDF808B028DD08EBD873C3F34F0BD7
:10184C00C8F10008204649463A46FFF70DFEAC4267
:10185C000FFA8BF313D0434506DD019ACAEB0B0B41
:10186C0014441FFA8BFBA4B2B342EBDA009B9B44EB
:10187C00029B99441FFA8BFB1FFA89F9E2E7039A42
:10188C009145E8D105B0BDE8F08F06EBD6735B103F
:10189C005B421FFA83FBD3E7C80B00202DE9F04114
:1018AC0082B01D46BDF820400094074688460B4682
:1018BC001646FFF773FF384641463A462B460094CE
:1018CC00FFF76CFF4146304632462B460094FFF73B
:1018DC0065FF2946384632462B46089402B0BDE8CF
:1018EC00F041FFF75BBF00BF2DE9F04182B0994298
:1018FC000C461D4680461746BDF820600AD221468C
:10190C0023460134009640463A46A4B2FFF746FF00
:10191C00A542F4D802B0BDE8F08100BF2DE9F04F2C
:10192C0096B289B01C4689B2C6EBC6331FFA80FB4F
:10193C0002915B0031449BB2904689B258462246D4
:10194C000393FFF791FD029A911B89B258462246E8
:10195C00FFF78AFD06EB0B0080B202992246FFF7D7
:10196C0083FDC6EB0B0080B202992246C6F101073B
:10197C00FFF77AFDB8F1000FBFB240F382800BF194
:10198C00010306930BF1FF330493029B013307937E
:10199C00029B013B4FF000090593DDF818C0039939
:1019AC001FFA89F5AC441FFA8CFC17F4004F604603
:1019BC00224609F1010901F102030AD19BB208F197
:1019CC00FF381F440FFA88F89BB2BFB203931FFA7B
:1019DC0088F6DDF808A0CDF804C0B2441FFA8AFAE4
:1019EC005146FFF741FD049A531B9BB218465146D2
:1019FC0022460093FFF738FD0299DDF804C0C6EBD0
:101A0C00010A1FFA8AFA604651462246FFF72CFD5E
:101A1C00009B514618462246FFF726FDDDF81CA018
:101A2C0006EB0B0CAA441FFA8CFC1FFA8AFA6046D0
:101A3C0051462246CDF804C0FFF716FDC6EB0B034A
:101A4C009BB21846514622460093FFF70DFD059AAE
:101A5C00DDF804C0C5EB020A1FFA8AFA604651464B
:101A6C002246FFF701FD009B07EB450701351846A1
:101A7C00514622462DB20337FFF7F6FCA845BFB2FC
:101A8C008BDC09B0BDE8F08F2DE9F04F95B21FFA51
:101A9C0081FB1E46C5EBC5338BB005EB0B015B0020
:101AAC009BB280B2904689B2324605930490FFF700
:101ABC00DBFCC5EB0B0189B204983246FFF7D4FC72
:101ACC00049C2C44A4B2204659463246FFF7CCFC69
:101ADC000499C5EB01091FFA89F948465946324663
:101AEC00FFF7C2FC48462246009659465B46C5F1B4
:101AFC000107FFF753FEB8F1000FBFB26ADD049B7C
:101B0C000499013B0131069308910BF101030BF190
:101B1C00FF314FF0000909930791069BDDF820C0B7
:101B2C0005991FFA89F4C4EB030AA4441FFA8AFA34
:101B3C001FFA8CFC17F4004F5046624609F101095C
:101B4C0001F102030AD19BB208F1FF381F440FFACE
:101B5C0088F89BB2BFB205931FFA88F505EB0B0111
:101B6C0089B20B460096CDF80CC0FFF717FEDDF8D6
:101B7C000CC00096C5EB0B0189B2604652460B4671
:101B8C00FFF70CFE049B0999DDF810C00096214468
:101B9C00C5EB030AAC441FFA8CFC89B21FFA8AFA13
:101BAC000B4660465246CDF80CC0FFF7F7FD079B7D
:101BBC00DDF80CC00096191B07EB440789B2013401
:101BCC00604652460B4624B20337FFF7E7FDA045AB
:101BDC00BFB2A2DC0BB0BDE8F08F00BF2DE9F00363
:101BEC00002832D01A4E7288B3683588904228BFCC
:101BFC0010464FEA400C03F1504303EB0C0425B3A1
:101C0C000027B046121A002A0CDD002234F8025BC1
:101C1C0023F8025B0132758892B22D1A0FFA82F901
:101C2C00A945F3DB38B10022013292B215B2A842B9
:101C3C0023F8021BF8DC0137BFB232883DB2954263
:101C4C00644402DAB8F80220DCE7BDE8F003704720
:101C5C00C80B00202DE9F003002834D01B4E1C4B80
:101C6C007288B4683588904228BF10464FEA400C01
:101C7C00CCF1000C234403EB0C0425B30027B04635
:101C8C00121A002A0CDD002234F8025923F80259EA
:101C9C000132758892B22D1A0FFA82F9A945F3DB3D
:101CAC0038B10022013292B215B2A84223F80219BF
:101CBC00F8DC0137BFB232883DB29542644402DA97
:101CCC00B8F80220DCE7BDE8F0037047C80B002031
:101CDC00FE5702D02DE9F04F4FF0020A83B08C4C26
:101CEC008DF804A04FF0000950464FF0030B012172
:101CFC008DF806908DF807908DF805B002F0BCFCBD
:101D0C00204605210C2201F043FD02AF0C22204697
:101D1C00062101F03DFDDFF800827E4D6023204658
:101D2C00694647F8083D01F095FC0420012102F0BA
:101D3C00A3FC0C2249464046012601F029FD4046F1
:101D4C00694604F50064009601F084FC31460820D5
:101D5C0002F092FC494620460C2201F019FD204667
:101D6C0031460C2201F014FD204608210C2201F012
:101D7C000FFD204609210C2201F00AFD20460A2104
:101D8C000C2201F005FD20460E210C2201F000FD75
:101D9C000C2220460F2101F0FBFC4CF20373204671
:101DAC006946009301F056FC3146102002F064FCA9
:101DBC00494628460C2201F0EBFC284631460C2201
:101DCC0001F0E6FC284607210C2201F0E1FC284634
:101DDC0008210C2201F0DCFC284609210C2201F020
:101DEC00D7FC28460A210C2201F0D2FC28460B21F4
:101DFC000C2201F0CDFC0C2128460A4601F0C8FC4F
:101E0C0028460D210C2201F0C3FC28460E210C2281
:101E1C0001F0BEFC0C2228460F2101F0B9FC4FF654
:101E2C00837328466946009304F5006401F012FCA4
:101E3C003146202002F020FC494620460C2201F0BD
:101E4C00A7FC204631460C2201F0A2FC204651464C
:101E5C000C2201F09DFC204659460C2201F098FC06
:101E6C00204604210C2201F093FC204605210C2273
:101E7C0001F08EFC20460B210C2201F089FC0C2178
:101E8C0020460A4601F084FC20460D210C2201F06C
:101E9C007FFC20460E210C2201F07AFC0C222046FD
:101EAC000F2101F075FC4FF63F0320466946009365
:101EBC0008F5805801F0CEFB3146402002F0DCFBE7
:101ECC00494640460C2201F063FC404631460C2248
:101EDC0001F05EFC404604210C2201F059FC404606
:101EEC0005210C2201F054FC404608210C2201F083
:101EFC004FFC40460C220F2101F04AFC48F23313F0
:101F0C0069464046009301F0A5FB03B0BDE8F08F95
:101F1C000004024000100240000802402DE9F0438A
:101F2C0097B0FFF7D7FE012001464FF0100902F0E1
:101F3C00BBFB002402230125072104224FF4C07CA3
:101F4C004FF4006E4FF040084FF400570DEB0906AC
:101F5C000BA80493089309930A930C94119413946B
:101F6C000591079106920D920B95CDF83890CDF80E
:101F7C003C80CDF840C0CDF848E01497159601F0A0
:101F8C000BF9082303940095029501934FF48034C8
:101F9C0001E0013C05D00120202101F00BFA0028C2
:101FAC00F7D1684601F07CF90220082101220023B8
:101FBC008DE80F004FF4803401E0013C05D0012086
:101FCC00202101F0F7F90028F7D1684601F068F9F3
:101FDC000823032100228DE80A00029303924FF498
:101FEC00803401E0013C05D00120202101F0E2F910
:101FFC000028F7D1684601F053F90420082101228A
:10200C0040F231238DE80F004FF4803401E0013CA5
:10201C0005D00120202101F0CDF90028F7D1684628
:10202C0001F03EF94FF42A7001F05AF94FF4803464
:10203C0001E0013C05D00120202101F0BBF9002872
:10204C00F7D1054B10221A701878831A5842584150
:10205C0017B0BDE8F08300BF500000D010B50446A7
:10206C0081812046022103F03FFD0028F9D0204653
:10207C00012103F039FD0028F9D02046802103F01E
:10208C0033FD0028F9D1A089C0B210BD2DE9F04173
:10209C0005460E46174673B103F1FF381FFA88F850
:1020AC0008F101080024315D2846FFF7D7FF3855A9
:1020BC0001344445F7D1BDE8F08100BF70B5054649
:1020CC0052B1561E11FA86F64C1E14F8011F284602
:1020DC00FFF7C4FFB442F8D170BD00BFF8B5054698
:1020EC0016465BB15F1E11FA87F74C1E2846314627
:1020FC00FFF7B4FF04F8010FBC42F7D1F8BD00BFE5
:10210C0010B5044681812046022103F0EDFC002825
:10211C00F9D02046012103F0E7FC0028F9D0204635
:10212C00802103F0E1FC0028F9D1A08980B210BD18
:10213C002DE9F04105460E46174683B103F1FF38F1
:10214C001FFA88F808F101084FEA48080024315BAF
:10215C002846FFF7D5FF385302344445F7D1BDE884
:10216C00F08100BF70B5054662B1561EB6B28B1C2D
:10217C000C4603EB460634F8021B2846FFF7C0FF5B
:10218C00B442F8D170BD00BFF8B5054616466BB128
:10219C005F1EBFB28A1C0C4602EB4707284631462D
:1021AC00FFF7AEFF24F8020BBC42F7D1F8BD00BF1D
:1021BC0030B589B000230146032402208DF80A3083
:1021CC008DF80B308DF809408DF8080049B30129C2
:1021DC0042D001214FF4805002F07EFA03A803F0A4
:1021EC00A7FB202500234FF4007203A94FF482743F
:1021FC002648ADF81030ADF80C30ADF81A30ADF80B
:10220C001230ADF81430ADF81620ADF81850ADF80A
:10221C000E4003F0E7FA1D48012103F09FFB09B0C3
:10222C0030BD0120014602F027FA08A9E02341F84D
:10223C001C3D174801F00EFA05210A46144801F01E
:10224C00A7FA13480621052201F0A2FA104807212B
:10225C00052201F09DFABCE702F00EFA08A938231A
:10226C0041F81C3D0B4801F0F5F9214609480522BF
:10227C0001F08EFA07480421052201F089FA0521A4
:10228C000A46044801F084FAA3E700BF003001407D
:10229C0000000240000402402DE9F04188B04FF0EC
:1022AC00000801250327022604468DF80A808DF8C4
:1022BC000B508DF809708DF8086060B301286DD053
:1022CC0002284FD001214FF4804002F0F9F903A805
:1022DC0003F02EFB202500234FF4007203A94FF4CA
:1022EC0082743C48ADF81030ADF80C30ADF81A30B3
:1022FC00ADF81230ADF81430ADF81620ADF818501A
:10230C00ADF80E4003F06EFA3248012103F026FBC3
:10231C0008B0BDE8F0813046294602F0ADF908ACB2
:10232C002946042002F0A8F90C2344F81C3D2A4845
:10233C00214601F08FF94FF4806321462748019321
:10234C0001F088F931462448052201F021FA39467A
:10235C002148052201F01CFA20480A21052201F02F
:10236C0017FAAFE729464FF4807002F085F908A9F7
:10237C000D2341F81C3D194801F06CF941461848F1
:10238C00052201F005FA21461548052201F000FA54
:10239C0039461348052201F0FBF993E730462146F4
:1023AC0002F06AF908A94FF4604341F81C3D0B4850
:1023BC0001F050F909480D21052201F0E9F907480F
:1023CC000E21052201F0E4F904480F21052201F049
:1023DC00DFF977E7003800400008024000040240B3
:1023EC000020024030B589B00023032402228DF86E
:1023FC000A308DF80B308DF809408DF8082048B361
:10240C00012842D001214FF4004002F059F903A8F1
:10241C0003F08EFA202500234FF4007203A94FF429
:10242C0082742848ADF81030ADF80C30ADF81A3085
:10243C00ADF81230ADF81430ADF81620ADF81850D8
:10244C00ADF80E4003F0CEF91E48012103F086FAD8
:10245C0009B030BD1046012102F00EF908A938234D
:10246C0041F81C3D184801F0F5F8214616480622A3
:10247C0001F08EF914480421062201F089F9124862
:10248C000521062201F084F9BCE70146042002F084
:10249C00F3F808A94FF4E05341F81C3D0B4801F048
:1024AC00D9F80A480A21062201F072F907480B21D3
:1024BC00062201F06DF905480C21062201F068F99D
:1024CC00A0E700BF003C00400004024000080240AE
:1024DC0030B589B00023032202248DF80A308DF820
:1024EC000B308DF809208DF8084048B3012842D0F4
:1024FC0001214FF4005002F0EFF803A803F018FA92
:10250C00202500234FF4007203A94FF4827428484D
:10251C00ADF81030ADF80C30ADF81A30ADF8123013
:10252C00ADF81430ADF81620ADF81850ADF80E40DB
:10253C0003F058F91E48012103F010FA09B030BD20
:10254C001020012102F098F808A9642341F81C3DE1
:10255C00184801F07FF821461648052201F018F9B9
:10256C0005210A46134801F013F9124806210522E9
:10257C0001F00EF9BCE70146102002F07DF808A925
:10258C004FF4E04341F81C3D0A4801F063F8094858
:10259C000C21052201F0FCF806480D21052201F062
:1025AC00F7F804480E21052201F0F2F8A0E700BF6D
:1025BC00003401400010024030B589B000230321E3
:1025CC00022204468DF80A308DF80B308DF8091074
:1025DC008DF8082048B3012843D001214FF4801016
:1025EC0002F07AF803A803F0A3F9202500234FF496
:1025FC00007203A94FF482742D48ADF81030ADF879
:10260C000C30ADF81A30ADF81230ADF81430ADF81E
:10261C001620ADF81850ADF80E4003F0E3F824483E
:10262C00012103F09BF909B030BD2020012102F0FB
:10263C0023F808A94FF4607341F81C3D1D4801F0C4
:10264C0009F81C480721052201F0A2F819480821B5
:10265C00052201F09DF817480921052201F098F890
:10266C00BBE72146202002F007F808AD2146802068
:10267C0002F002F8C02345F81C3D0E48294600F034
:10268C00E9FF4FF4006329460A48019300F0E2FF8A
:10269C0008480B21052201F07BF80748062105228A
:1026AC0001F076F804480721052201F071F894E74F
:1026BC000050014000140240001C024070B5402044
:1026CC0088B0012101F0D8FF254D264E08A94FF402
:1026DC00E043002441F81C3D2846022303228DF8D8
:1026EC0008308DF809208DF80A408DF80B4000F069
:1026FC00B1FF28460D21052201F04AF828460C218D
:10270C00052201F045F8052228460E2101F040F87B
:10271C0001214FF4001001F0DFFF03A803F008F9CA
:10272C0020254FF482724FF4007303A93046ADF8A4
:10273C000E20ADF81630ADF81040ADF80C40ADF8E9
:10274C001A40ADF81240ADF81440ADF8185003F033
:10275C0049F83046012103F001F908B070BD00BF03
:10276C000018024000540140124B984212D0124BF8
:10277C00984212D0114B984212D0114B984212D061
:10278C00104B984212D0104B984200D0704708461C
:10279C00FFF794BF0846FFF70BBD0846FFF77CBD5B
:1027AC000846FFF71FBE0846FFF792BE0846FFF724
:1027BC0003BF00BF0030014000380040003C004027
:1027CC0000340140005001400054014010B540203D
:1027DC0082B0012101F050FF4FF4C04100230322CD
:1027EC000091012406488DF8063069468DF80730B3
:1027FC008DF804408DF8052000F02CFF02B010BDC0
:10280C000018024000B5012083B0014601F034FFEE
:10281C00012100230322009107488DF806306946F8
:10282C008DF804308DF807308DF8052000F012FF7C
:10283C0003B05DF804FB00BF00000240044B1A68B3
:10284C0001321A605A6812B15A68013A5A607047DC
:10285C007C050020F8B5154C237A03B1F8BD012096
:10286C0001F084FD01F08AFD0028FBD0104B1149CA
:10287C001A68A1FB023189090139B1F1807F00D3BB
:10288C00FEE70D4B0D4D0E4F59609209A5FB021240
:10289C000C484FF0F00C012687F823C0920A2672E0
:1028AC00002507219D6019600260F8BD7C050020A1
:1028BC00E4000020D34D621010E000E01791650297
:1028CC0000ED00E0DC0B0020044B1B7A23B1044B21
:1028DC001A6842F002021A60704700BF7C050020A3
:1028EC0010E000E0024B1A6822F002021A607047F6
:1028FC0010E000E030B585B004460D46684601F0A6
:10290C0005FE4FF6FF73B4F1804FAB6042D0254B00
:10291C009C423FD0244B9C4234D003F580639C42B4
:10292C0030D003F570539C422CD003F580639C424D
:10293C0028D003F580639C4224D01C4B9C4219D0B8
:10294C0003F580639C4215D003F500639C4211D0C3
:10295C0003F580639C420DD003F580639C4209D043
:10296C0003F580639C4205D003F580639C4218BF3D
:10297C0002200DD1039B2B6000204FF6FF736B6080
:10298C0005B030BD019B2B604FF6FF736B600020D0
:10299C0005B030BD039B2B6000204FF0FF336B6004
:1029AC0005B030BD000C00400000014000040040A8
:1029BC002DE9F047D0F8008055EC104B0646404608
:1029CC0006F012F822462B4606F0F6FA074638B106
:1029DC0000233361F360736103231846BDE8F0876D
:1029EC00204629460022002306F0DCFA30B10423ED
:1029FC003761F76077611846BDE8F087D6F8049028
:102A0C00B368B9F5803F38BF09F101094FF00007F1
:102A1C0038BFC6F8049003F1010A376101E057454D
:102A2C0017D80137B8FBF7F005F0DEFF22462B462E
:102A3C0006F07AF906F0E8FA4845F0D85745F06008
:102A4C00376106D82046294606F0DEFA002370616D
:102A5C00C3E700233361F36073610423BDE700BF58
:102A6C0008B53B4B98422ED0B0F1804F30D0394B4B
:102A7C00984232D0384B984234D0384B984236D0AA
:102A8C00374B984238D0374B98423AD0364B984215
:102A9C003CD0364B98423ED0354B984241D0354BCA
:102AAC00984244D0344B984247D0344B984249D04A
:102ABC00334B984201D0002008BD4FF480700121A7
:102ACC0001F0FEFDF7E70120014601F005FEF2E7FB
:102ADC000120014601F0F4FDEDE70220012101F097
:102AEC00EFFDE8E70420012101F0EAFDE3E708200F
:102AFC00012101F0E5FDDEE71020012101F0E0FDF0
:102B0C00D9E72020012101F0DBFDD4E702200121CF
:102B1C0001F0E2FDCFE74FF48030012101F0DCFD44
:102B2C00C9E74FF40030012101F0D6FDC3E74FF4A3
:102B3C008020012101F0D0FDBDE74020012101F0F2
:102B4C00BFFDB8E78020012101F0BAFDB3E700BF5B
:102B5C00000001400004004000080040000C004050
:102B6C0000100040001400400004014000400140EF
:102B7C00004401400048014000180040001C004087
:102B8C000020004008B53B4B98422ED0B0F1804F4E
:102B9C0030D0394B984232D0384B984234D0384BE5
:102BAC00984236D0374B984238D0374B98423AD06F
:102BBC00364B98423CD0364B98423ED0354B9842DF
:102BCC0041D0354B984244D0344B984247D0344B8B
:102BDC00984249D0334B984201D0002008BD4FF4A5
:102BEC008070002101F06CFDF7E70120002101F05D
:102BFC0073FDF2E70120002101F062FDEDE70220F8
:102C0C00002101F05DFDE8E70420002101F058FDF2
:102C1C00E3E70820002101F053FDDEE7102000213E
:102C2C0001F04EFDD9E72020002101F049FDD4E749
:102C3C000220002101F050FDCFE74FF4803000213D
:102C4C0001F04AFDC9E74FF40030002101F044FDCA
:102C5C00C3E74FF48020002101F03EFDBDE740208A
:102C6C00002101F02DFDB8E78020002101F028FDA6
:102C7C00B3E700BF00000140000400400008004022
:102C8C00000C004000100040001400400004014003
:102C9C000040014000440140004801400018004041
:102CAC00001C004000200040044B054900221A6023
:102CBC005A609A60DA605961704700BF003C01406D
:102CCC00FFFF7F00837970B42BB31D4B01681E6826
:102CDC0002794579CC4326401E605E6802F1804241
:102CEC0002F59E3234405C60146821431160026826
:102CFC009868D14308409860D868102D01EA00010B
:102D0C00D96014D005F1804303F59E3370BC19686B
:102D1C000A431A6070470379016803F1804303F595
:102D2C009E3370BC1A6822EA01021A6070479968D7
:102D3C0011439960D9680A43DA6070BC704700BFD0
:102D4C00003C014000230C2242710360037183712B
:102D5C00704700BF024B1A6910431861704700BFDF
:102D6C00003C0140034B5B6918420CBF0020012062
:102D7C00704700BF003C0140014B5861704700BFD9
:102D8C00003C0140034B5B6918420CBF0020012042
:102D9C00704700BF003C0140014B5861704700BFB9
:102DAC00003C014010B44FF0204380B143F2D202FA
:102DBC0043F82020441C4FF02041074A6FF0704329
:102DCC0041F8243042F820305DF8044B704743F250
:102DDC00DB021A60EEE700BF040100A02DE9F0074A
:102DEC004368D0F80890C768066945698469C16969
:102DFC00026AD0F82880D0F800C049EA030A4AEAEF
:102E0C0007073E4335432C4321430A43416A056B74
:102E1C00446B42EA0103C26A43EA080313434FEAD4
:102E2C008C021D4302F120422543B9F1080F1560B5
:102E3C0026D0B4F5801F2AD0836B1A6993E8500012
:102E4C009F699D68D9685B693C4344EA061444EA6F
:102E5C00052444EA014444EA03640CF101014FF0F7
:102E6C00204344EA0252B8F5804F43F8212025D084
:102E7C001E4B6FF0704243F82C20BDE8F0077047F2
:102E8C001368B4F5801F43F040031360D4D1BCF138
:102E9C00000FD1D04FF02041836B4C680A6842F48C
:102EAC0080120A600A6842F480720A601A6924F47B
:102EBC007004551E44EA05544C60BFE7C36B0B4AC3
:102ECC009F691E685D689C681869596947EA060322
:102EDC0043EA051343EA042343EA005343EA01633C
:102EEC0042F82C30BDE8F007704700BF040100A089
:102EFC0070B40023022610254FF480540A4A466011
:102F0C004FF40051C5600462416203608360036149
:102F1C00C36243618361C3618362036343638263FE
:102F2C00C26370BC704700BF40BC0008800000F159
:102F3C00204021B90268044B1340036070470368BA
:102F4C0043F0010303607047FEFF0F0010280CBF15
:102F5C00054B064B4FF0FC3218204021186059608D
:102F6C009A60DA60704700BF600000A0800000A08B
:102F7C002DE9F00F46688568C269036AC4689168D8
:102F8C00D3F80480D0F810A0D2F80490D0F814C074
:102F9C001768D268354345F008052C439D6886694F
:102FAC0000684FEA014B29041D68DB6841EA0821DF
:102FBC0044EA0A044BEA092B102841EA050545EAC4
:102FCC00036544EA4C2C0CBF064B074B4BEA070736
:102FDC004CEA463647EA02671E609F60DD60BDE83A
:102FEC00F00F7047600000A0800000A030B4016AB0
:102FFC00C469FC2300221025056085604260C26014
:10300C0002614261826123606360A360E3600B60D4
:10301C004B608B60CB6030BC704700BF41B1102857
:10302C000CBF084B084B1A6842F004021A60704738
:10303C0010280CBF034A044A044B11680B40136060
:10304C00704700BF600000A0800000A0FBFF0F00D5
:10305C0041B110280CBF084B084B1A6842F04002D3
:10306C001A60704710280CBF034A044A044B1168BD
:10307C000B401360704700BF600000A0800000A0F0
:10308C00BFFF0F0010280CBF014B024B5869704753
:10309C00600000A0800000A0054B4FF0FC3218200F
:1030AC000021186059609A60DA601A61704700BF9D
:1030BC00A00000A0F0B407684668C46801694269C2
:1030CC008568144B47F0100040EA462040EA453032
:1030DC00186094E86000A068E468000440EA0620E8
:1030EC00284340EA0460986091E87000C868310495
:1030FC0041EA0521214341EA0061D96092E831009F
:10310C00D1682A0442EA0422024342EA01621A61AB
:10311C00F0BC7047A00000A030B40169C4684269DB
:10312C00FC23002505604560856023606360A36017
:10313C00E3600B604B608B60CB6030BC1360536002
:10314C009360D360704700BF28B9064A064B1168DC
:10315C000B4013607047034B1A6842F004021A606C
:10316C00704700BFA00000A0FBFF0F0030B4800030
:10317C00084B00F1204000224FF434756FF070447E
:10318C00C0F84051C0F848411A6130BC5A619A618C
:10319C00704700BF400100A02DE9F003816846682C
:1031AC00C5680469C369D0F82090476A02680E4369
:1031BC0035432C43456944EA05018469214319438D
:1031CC0041EA0901394302BB264A836A11609F68B0
:1031DC005D681E68DC6803F110000BC8013F3F02FC
:1031EC00013D47EA0515013E3543013C45EA0434EF
:1031FC00013844EA0040013940EA0151013B41EAFF
:10320C0003639360BDE8F003704749EA0308154C6B
:10321C00836A48EA07002060D3F808805E68DF689C
:10322C00D3F800C05D69186908F1FF331B02013E39
:10323C00920043EA0616013F0CF1FF3C02F12042DA
:10324C003F0346EA0C06013D013847EA055546EABC
:10325C000040C2F84011A560C2F84801BDE8F00377
:10326C00704700BF400100A030B4826A4023036164
:10327C000021102380254FF40074456184610160A6
:10328C0041608160C16101624162C36030BC136006
:10329C0053609360D360136153619361704700BFB7
:1032AC0030B490E82200C4688268054B294341EA97
:1032BC004421013A41EA42121A6130BC704700BF06
:1032CC00400100A0054B20B1986900F0180080085F
:1032DC007047986900F00600704700BF400100A0DD
:1032EC00024B5A6942EA400058617047400100A005
:1032FC00024B1A6942EA401018617047400100A065
:10330C00800000F1204039B9D0F8402147F6FF5336
:10331C001340C0F840317047D0F8403143F400738B
:10332C00C0F84031704700BF62B110281ED0B0F514
:10333C00807F2BD0B0F5805F1DD01A4B5A6911439A
:10334C005961704710280BD0B0F5807F18D0B0F5BC
:10335C00805F20D0134B5A6922EA010159617047F2
:10336C00114B5A6822EA0101596070470E4B5A689A
:10337C001143596070470D4B5A681143596070479F
:10338C000B4B5A6822EA010159607047084B5A6886
:10339C00114359607047054B5A6822EA0101596084
:1033AC00704700BF400100A0600000A0A00000A07A
:1033BC00800000A010280ED0B0F5807F0ED0B0F5A4
:1033CC00805F0BBF074B084B5868986908400B1A75
:1033DC00584258417047054B5868F7E7044B5868FA
:1033EC00F4E700BFA00000A0400100A0600000A016
:1033FC00800000A010280BD0B0F5807F0ED0B0F567
:10340C00805F11D00B4B5A6922EA01015961704758
:10341C00094B5A6822EA010159607047074B5A68F8
:10342C0022EA010159607047054B5A6822EA0101F2
:10343C0059607047400100A0600000A0800000A00F
:10344C00A00000A0102810B41CD0B0F5807F12D0C2
:10345C00B0F5805F1DD0104A53699469012801EAC8
:10346C0003020CD804F0010010B1101C18BF01208D
:10347C005DF8044B7047094B5B6803EA010203EAF1
:10348C00D100F1E7064B5B6801EA030203EAD100C5
:10349C00EAE7044B5B68F0E7400100A0800000A065
:1034AC00600000A0A00000A010280BD0B0F5807F19
:1034BC000ED0B0F5805F11D00B4B5A6942F001026F
:1034CC005A617047094B5A6822EAD101596070471A
:1034DC00074B5A6822EAD10159607047054B5A686C
:1034EC0022EAD10159607047400100A0600000A0A1
:1034FC00800000A0A00000A008B54B4B98422AD039
:10350C004A4B984231D04A4B984238D0494B98425A
:10351C003FD0494B984246D0484B98424DD0484BEF
:10352C00984254D0474B98425BD0474B984262D05C
:10353C00464B98426BD0464B984200D008BD4FF496
:10354C008060012101F0D4F84FF480600021BDE8C7
:10355C00084001F0CDB80120014601F0C9F8012066
:10356C000021BDE8084001F0C3B80220012101F0A0
:10357C00BFF802200021BDE8084001F0B9B80420D2
:10358C00012101F0B5F804200021BDE8084001F04C
:10359C00AFB80820012101F0ABF808200021BDE8EC
:1035AC00084001F0A5B81020012101F0A1F810206D
:1035BC000021BDE8084001F09BB82020012101F05A
:1035CC0097F820200021BDE8084001F091B8402078
:1035DC00012101F08DF840200021BDE8084001F0E8
:1035EC0087B88020012101F083F880200021BDE8FC
:1035FC00084001F07DB84FF48070012101F078F89B
:10360C004FF480700021BDE8084001F071B84FF410
:10361C000070012101F06CF84FF400700021BDE83E
:10362C00084001F065B800BF0000024000040240F1
:10363C0000080240000C024000100240001402403E
:10364C0000180240001C02400020024000240240EE
:10365C000028024000222DE9F00713460E680127CE
:10366C004FF0030804E00133102B02F102022CD0BE
:10367C0007FA03F404EA0605A542F4D1D0F8009049
:10368C0091F804C008FA02F4E44304EA0909C0F80A
:10369C000090D0F800900CFA02FA0CF1FF3C4AEAC8
:1036AC000909BCF1010FC0F8009011D9C56891F857
:1036BC0007C02C40C460C5680CFA02F401332C43DB
:1036CC00102BC46002F10202D2D1BDE8F0077047A2
:1036DC00D0F808A091F8059091F806C004EA0A0AFF
:1036EC00C0F808A0D0F808A009FA02F949EA0A09BA
:1036FC00C0F80890D0F8049029EA050545604568A3
:10370C000CFA03FC1FFA8CFC4CEA05054560CDE76E
:10371C0000234FF6FF720260037143718371C37112
:10372C00704700BF82B04FF480330193019B0B4371
:10373C000193019BC361C161019BC361C369019387
:10374C00C369019302B07047036919420CBF002092
:10375C0001207047006980B2704700BF436919426D
:10376C000CBF002001207047406980B2704700BF39
:10377C0001837047418370470AB9418370470183C5
:10378C00704700BF416170474369594041617047C0
:10379C00CB0800EB830001F0070110B48900046A28
:1037AC000F238B4024EA03030362036A5DF8044B86
:1037BC008A4013430362704708B5174B984212D0E6
:1037CC00164B98421BD0164B984200D008BD4FF4B4
:1037DC000000012100F0B0FF4FF400000021BDE813
:1037EC00084000F0A9BF4FF40010012100F0A4FF25
:1037FC004FF400100021BDE8084000F09DBF4FF4CD
:10380C008000012100F098FF4FF480000021BDE8FA
:10381C00084000F091BF00BF005400400058004029
:10382C00005C0040F0B5044685B068460D46A6889D
:10383C0000F06CFE029930482A68DFF8C4C0A0FB87
:10384C00013026F03F063604800C360C87B23E431E
:10385C00A680238823F001031B041B0C62452380E4
:10386C0023D85300B1FBF3F39BB2032B07F10107F1
:10387C0098BF04232784A38323886E89A888298969
:10388C00AA899BB243F001032380238823F481632C
:10389C0023F002031B0430431B0C03430A439BB26B
:1038AC0092B22380228105B0F0BDEE884BF6FF73F7
:1038BC009E421AD002EB820202EB8202B1FBF2F3BF
:1038CC009BB243F48043C3F30B020AB943F00103E8
:1038DC004FF49671094A01FB00F082FB001080093D
:1038EC00013043F400432084C5E702EB4202B1FBF4
:1038FC00F2F39BB2E7E700BF83DE1B43D34D6210AC
:10390C00A0860100002310B44BF6FF7141F28834FD
:10391C004FF480420460C1808281838003814381A3
:10392C005DF8044B704700BF038829B923F00103ED
:10393C001B041B0C038070479BB243F001030380F4
:10394C00704700BF838C21B99BB243F01003838472
:10395C00704723F010031B041B0C8384704700BFBB
:10396C00838C9BB201F00F0123F00F031943818468
:10397C00704700BF038829B923F480731B041B0C08
:10398C00038070479BB243F480730380704700BF81
:10399C00038829B923F400731B041B0C03807047A4
:1039AC009BB243F400730380704700BF1AB901F057
:1039BC00FE010182704741F001010182704700BF96
:1039CC00038829B923F480631B041B0C0380704704
:1039DC009BB243F480630380704700BF83899BB222
:1039EC0001F0FE0123F0FE0319438181704700BFF3
:1039FC00838929B923F001031B041B0C83817047B5
:103A0C009BB243F001038381704700BF038829B93F
:103A1C0023F040031B041B0C038070479BB243F044
:103A2C0040030380704700BF038819B9C3F30E032A
:103A3C00038070476FEA43436FEA53439BB20380A2
:103A4C00704700BF038829B123F080031B041B0CB3
:103A5C00038070479BB243F080030380704700BF24
:103A6C00B1F5804F838B05D023F480431B041B0CD2
:103A7C00838370479BB243F480438383704700BFBA
:103A8C00B1F5006F038805D023F400631B041B0CF5
:103A9C00038070479BB243F400630380704700BF00
:103AAC00B1F5005F038805D023F400531B041B0CF5
:103ABC00038070479BB243F400530380704700BFF0
:103ACC00038829B923F010031B041B0C03807047D7
:103ADC009BB243F010030380704700BF0182704714
:103AEC00008AC0B2704700BF038829B923F4805301
:103AFC001B041B0C038070479BB243F48053038060
:103B0C00704700BFB1F5006F038805D023F4006344
:103B1C001B041B0C038070479BB243F400630380AF
:103B2C00704700BF038829B923F020031B041B0C2A
:103B3C00038070479BB243F020030380704700BFA3
:103B4C00008BC0F307207047838829B923F40063E6
:103B5C001B041B0C838070479BB243F4006383806F
:103B6C00704700BF838829B923F480531B041B0CB6
:103B7C00838070479BB243F480538380704700BFAF
:103B8C0082B0002301930190019B19440191019B88
:103B9C00188880B202B0704783889BB21AB923EAA6
:103BAC00010181807047194381807047828A038BA1
:103BBC0090B240EA034021F07F4318400B1A584260
:103BCC0058417047828A038B90B240EA034020F040
:103BDC007F40704782B000230A0F0093019301903D
:103BEC000092009B21F07F4153B1019B1433019350
:103BFC00019B1B6819420CBF0020012002B07047CA
:103C0C00019B1833090C0193F2E700BFC94389B239
:103C1C00818270478388808A80B208409BB206D02C
:103C2C0001F0E06113EA11410CBF00200120704744
:103C3C00C94389B281827047014B1860704700BF3D
:103C4C0000300040014B5860704700BF003000400E
:103C5C00014B9860704700BF00300040024B4AF6A1
:103C6C00AA221A60704700BF00300040024B4CF68D
:103C7C00CC421A60704700BF00300040034BDB6839
:103C8C0018420CBF00200120704700BF00300040DC
:103C9C0008B54FF08060012100F05AFD4FF08060B4
:103CAC000021BDE8084000F053BD00BF244B254A5D
:103CBC00254970B49C6814409C609E6845690469F1
:103CCC00354345EA04449C60DC681440DC60DE68E3
:103CDC00C5698469354345EA0444DC601C691440B9
:103CEC001C611E69456A046A354345EA04441C613B
:103CFC005C6922405A615D69C46A826A2C4344EA59
:103D0C0002425A619A69114099619E69056844683A
:103D1C008168C26835432C4321430A439A61DA6AAD
:103D2C00446B016B02F07F42DA62826BD86A024309
:103D3C0042EA042242EA0142DA6270BC704700BFD8
:103D4C000068014000F800F08F88FE0F002303602C
:103D5C0043608360C360036143618361C361036239
:103D6C0043628362C362036343638363704700BF30
:103D7C00054B9A6918B922F001029A61704742F01A
:103D8C0001029A61704700BF00680140054B9A69B7
:103D9C0018B922F480329A61704742F480329A61E9
:103DAC00704700BF006801400A4B0B4A99690A40F2
:103DBC0010B49A619C6999699A69C4F30214C1F3AD
:103DCC000221C2F302320460416082605DF8044B50
:103DDC00704700BF006801408F88FE0F022303600C
:103DEC0043608360704700BF014B1864704700BF8D
:103DFC0000680140014B5862704700BF00680140E9
:103E0C004368D1F81CC02DE9F00F03F4704B91E816
:103E1C000C0042EA0342D1F80CA0D1F80890D1F87A
:103E2C0020808F694E6A0D694C69C0F804B04260FD
:103E3C008368D1F82CB08A6A49EA0A4903F47043C2
:103E4C008360C0F808900369D1F830904FEA0848B5
:103E5C0048EA0C2C23F007034CEA0707036147EAF6
:103E6C00066605610025836985618661436923F0D7
:103E7C00FF0343614461C36923F4E0634BEA02022C
:103E8C0023F00703C361C261836A8562C0F828907E
:103E9C00C56A8C6B4B6BCA6B43EA044305F0E0219B
:103EAC00C162C362036B23F4FF6323F0070382B088
:103EBC000363026302B0BDE8F00F7047002310B437
:103ECC004FF4C061FF24072244618162C262036027
:103EDC0043608360C36003618361C36103624362B7
:103EEC00036343638363C3635DF8044B704700BF94
:103EFC00036819B923F001030360704743F0010311
:103F0C0003607047054B0022596C5A64596C5A6C0B
:103F1C00090C92B280E80600704700BF00680140AF
:103F2C000023036043607047034B9B6C18420CBF2B
:103F3C0000200120704700BF0068014030B442B936
:103F4C00036823F0020303600B4B01225A6230BC5E
:103F5C00704705684C688A680B6845F0020101607F
:103F6C00C16801F07F41C160C1680B4343EA04237F
:103F7C0043EA0243C360E7E70068014000230360A3
:103F8C0043608360704700BF036831B923F01003AE
:103F9C000360054B01225A62704743F01003036023
:103FAC00014B01225A6270470068014030B491E81D
:103FBC003400CB681B0443EA0523234343EA026322
:103FCC00036430BC704700BF002303604360836010
:103FDC00C360704730B444681A4B04F470444460B6
:103FEC00846804F470448460DC680369A5B201EB56
:103FFC00144101352A444C1CEBB1012B1DD0991EE8
:10400C0002291CD9072B14BF01250225C16A036B99
:10401C00C1F30C010339C3F30A03B1FBF5F1013B06
:10402C00651E2944134444EA014442EA03424460B5
:10403C00826030BC70470425E8E70325E6E70225DB
:10404C00E4E700BF0068014041617047816270473E
:10405C000369F0B40BB3012B21D09C1E022C20D988
:10406C00072B14BF0123022345688468C5F30C0594
:10407C00C4F30C0401FB03F36E1E671E314417449A
:10408C00DE1C45EA014544EA074446EA0343456021
:10409C008460C362F0BC026370470423E4E703232B
:1040AC00E2E70223E0E700BF03697BB1012B25D0D7
:1040BC009A1E022A26D9072BC36A14BF0122022298
:1040CC001B0CB3FBF2F341B904220FE00422C36AC8
:1040DC001B0CB3FBF2F30029F6D0012910D08A1E79
:1040EC00022A11D9072914BF0122022203FB02F371
:1040FC00DA1C42EA0343C362016170470322E6E71C
:10410C000322F3E70222E2E70222EFE7044B5A6BA9
:10411C0019B922EA0000586370471043586370477E
:10412C0000680140034B9B6B18420CBF0020012020
:10413C00704700BF00680140014BD863704700BF57
:10414C0000680140054B9A6B5B6B034004D0104236
:10415C000CBF0020012070471846704700680140D2
:10416C00014BD863704700BF0068014008B54FF0A1
:10417C008050012100F0E0FA4FF080500021BDE8A2
:10418C00084000F0D9BA00BF014B1860704700BF5F
:10419C0020000E42034B1A6822F0E0021043186014
:1041AC00704700BF00700040014B1860704700BFA3
:1041BC0010000E42014B1860704700BFA0000E4269
:1041CC00014B1860704700BFA4000E42034B1A68E5
:1041DC0022F4404210431860704700BF007000404A
:1041EC00014B1860704700BF40000E42014B186035
:1041FC00704700BF44000E42054B1A6818B922F4F0
:10420C0040221A60704742F440221A60704700BF87
:10421C0000700040034B08B91860704701221A6007
:10422C00704700BF2C000E42034B08B91860704752
:10423C0001221A60704700BF28000E42014B186023
:10424C00704700BF24000E4210B40D4C0D4A236879
:10425C0023F4406323F003031843206013690129FE
:10426C0043F00403136108D020BF064B5DF8044BE8
:10427C001A6922F004021A61704730BFF5E700BFDB
:10428C000070004000ED00E010B40D4C0D4A2368A6
:10429C0023F4406323F003031843206013690129BE
:1042AC0043F00403136108D020BF064B5DF8044BA8
:1042BC001A6922F004021A61704730BFF5E700BF9B
:1042CC000070004000ED00E0054A064B116841F01B
:1042DC00020111601A6942F004021A6130BF704782
:1042EC000070004000ED00E0034B5B6818420CBF0F
:1042FC0000200120704700BF00700040B0F5402F37
:10430C00054B04D01A6842EA8000186070475A685E
:10431C0042F440225A607047007000400F4B104826
:10432C001968002241F0010130B419609A601968D3
:10433C000C4D0D4C21F0A85121F4102119605D6039
:10434C00C3F88440C3F88800196821F480211960EF
:10435C0030BCDA60C3F88C20704700BF00380240D4
:10436C00003000241030002400300020024B0022CA
:10437C001A701870704700BF0238024082B00023D8
:10438C000B4A019313689B030CD4019B01330193DB
:10439C00019BB3F5A04FF5D1054B1868C0F3404015
:1043AC0002B07047019B01330193019BF4E700BFFE
:1043BC0000380240034B1A6822F0F80242EAC000AF
:1043CC001860704700380240014B1860704700BFFE
:1043DC0000004742064B002201281A701A7005D0C3
:1043EC00042802D105221A70704770471870704764
:1043FC0070380240014B1860704700BF800E474276
:10440C0030B4029C064D40EA04605B080143013B5A
:10441C0041EA821242EA03436B6030BC704700BF32
:10442C0000380240014B1860704700BF60004742E3
:10443C00120742EA0161034B41EA8010C3F8840081
:10444C00704700BF00380240014B1860704700BF36
:10445C0068004742120742EA0161034B41EA8010AF
:10446C00C3F88800704700BF00380240014B186049
:10447C00704700BF70004742014B1860704700BF87
:10448C004C004742034B9A6822F0EC6211430843FC
:10449C009860704700380240034B9A6822F07842CB
:1044AC00114308439860704700380240034B9A68E8
:1044BC0022F0030210439860704700BF003802409E
:1044CC00024B986800F00C00704700BF00380240A7
:1044DC00034B9A6822F0F00210439860704700BFBB
:1044EC0000380240034B9A6822F4E0521043986063
:1044FC00704700BF00380240034B9A6822F46042B8
:10450C0042EAC00098607047003802401F4A936826
:10451C0003F00C03042B10B41BD0082B1CD01C4B29
:10452C0003601A491B4A8C68C4F30314145DE340FE
:10453C0043608C68C4F38224145D23FA04F4846011
:10454C0089685DF8044BC1F34231525CD340C360BF
:10455C007047114B0360E4E754685168526863027A
:10456C004CBF0D4B0A4B01F03F01C2F38812B3FB59
:10457C00F1F303FB02F3054A5268C2F30142013224
:10458C005200B3FBF2F30360CBE700BF00380240EC
:10459C000024F400C400002000127A0000F44073E0
:1045AC00B3F5407F09D1084A916820F0704321F49B
:1045BC00F81123F440730B439360034B1A6FC0F351
:1045CC000B0010431867704700380240014B18600D
:1045DC00704700BF3C0E4742014B1860704700BF4C
:1045EC00400E4742014B1860704700BF5C014742C8
:1045FC00044BD3F88C20013822F01F020243C3F87D
:10460C008C20704700380240054BD3F88C200138C1
:10461C0022F4F85242EA0022C3F88C20704700BF03
:10462C0000380240044BD3F88C2022F44012104383
:10463C00C3F88C00704700BF00380240044BD3F81D
:10464C008C2022F440021043C3F88C00704700BF4A
:10465C0000380240044BD3F88C2022F44032104333
:10466C00C3F88C00704700BF00380240014B186043
:10467C00704700BFE0114742044B1A6B19B922EA8C
:10468C0000001863704710431863704700380240ED
:10469C00044B5A6B19B922EA000058637047104357
:1046AC005863704700380240044B9A6B19B922EAE0
:1046BC0000009863704710439863704700380240BD
:1046CC00044B1A6C19B922EA0000186470471043A5
:1046DC001864704700380240044B5A6C19B922EA2E
:1046EC00000058647047104358647047003802400B
:1046FC00044B1A6919B922EA00001861704710437B
:10470C001861704700380240044B5A6919B922EA03
:10471C0000005861704710435861704700380240E0
:10472C00044B9A6919B922EA00009861704710434A
:10473C009861704700380240044B1A6A19B922EA92
:10474C00000018627047104318627047003802402E
:10475C00044B5A6A19B922EA000058627047104398
:10476C005862704700380240044B1A6D19B922EA9E
:10477C0000001865704710431865704700380240F8
:10478C00044B5A6D19B922EA000058657047104362
:10479C005865704700380240044B9A6D19B922EAEB
:1047AC0000009865704710439865704700380240C8
:1047BC00044B1A6E19B922EA0000186670471043B0
:1047CC001866704700380240044B5A6E19B922EA39
:1047DC000000586670471043586670470038024016
:1047EC00044B1A6F01280CBF42F0080222F0080299
:1047FC001A67704700380240044B1A7819B922EA3C
:10480C000000187070471043187070470D38024044
:10481C004309012B0BD0022B094B0CBF1B6F5B6F99
:10482C0000F01F0023FA00F000F001007047044B69
:10483C001B6800F01F0023FA00F000F00100704725
:10484C0000380240024B5A6F42F080725A67704730
:10485C0000380240034BDB6818420CBF00200120DB
:10486C00704700BF00380240014B1870704700BF02
:10487C000E38024000217F22FF2380E80E00704793
:10488C00044B20B9CA21532259625A627047FF2245
:10489C005A6270470028004082B000230E490193F1
:1048AC00CB685B0614D44FF0FF33CB6000E04AB901
:1048BC00CA68019B01330193019BB3F5803F02F061
:1048CC004002F4D1044BD868C0F3801002B070479A
:1048DC00012002B0704700BF0028004038B5104CD2
:1048EC00CA225323626263620546FFF7D5FF98B173
:1048FC00A36823F04003A360A2682B681343A36052
:10490C00AB68236123696A6843EA02432361E36865
:10491C0023F08003E3600120014BFF225A6238BD73
:10492C0000280040024BDA6822F08002DA607047FF
:10493C00002800400F4982B053230020CA22019066
:10494C004A624B62CB6823F0A003CB6000E04AB90B
:10495C00CA68019B01330193019BB3F5003F02F040
:10496C002002F4D1034BD868FF22C0F340105A62E6
:10497C0002B070470028004030B5204C83B00025B1
:10498C00CA225323019562626362FFF785FFC0B1AF
:10499C0042F2011325606360A36803F00703A36070
:1049AC00214600E04AB9CA68019B01330193019B7F
:1049BC00B3F5803F02F00402F4D1104BDA685207D1
:1049CC0005D400200D4BFF225A6203B030BD0022EB
:1049DC004FF6FF700A499C689A60586119619A6198
:1049EC00DA611A62DA62DA635A649A64DA601A6417
:1049FC00FFF7A0FF003018BF0120E3E700280040BC
:104A0C00FF007F0038B50E4CCA22532362626362EA
:104A1C000546FFF741FF50B1A36865B923F01003B9
:104A2C00A360074BDA6822F08002DA600120044BA5
:104A3C00FF225A6238BD43F01003A360F1E700BFB8
:104A4C00002800400A4B5322CA2159625A629A68C4
:104A5C0030B902F0DF029A60054BFF225A627047B0
:104A6C0042F020029A60024BFF225A62704700BF4C
:104A7C000028004038B5394B002836D19C6814F01A
:104A8C00400458D1CC700B78092B4FF0000207D999
:104A9C000A3BDBB20132092BD2B2F9D81201D2B2E5
:104AAC004878134309284FEA034354D900220A38A3
:104ABC00C0B201320928D2B2F9D81201D5B28A7823
:104ACC002843092A4FEA00204FF0000107D90A3A7F
:104ADC00D2B20131092AC9B2F9D80901C9B21C43B1
:104AEC0044EA00050A4315430CE09B6813F04003AD
:104AFC0024D1CB704D7808788A782D0245EA004590
:104B0C0015431D43154CCA21532361626362FFF7A1
:104B1C00C3FE60B105F07F3222F0FE422260E368F2
:104B2C0023F08003E360A3689B060AD501200B4B9E
:104B3C00FF225A6238BDCC782404A4E7CB781B043E
:104B4C00D8E7FFF7F7FE054B00304FF0FF0218BF18
:104B5C0001205A6238BD0025B1E700BF0028004093
:104B6C000023C3700370437083707047154B1B6830
:104B7C0070B403F4800603F07F04C3F30542360CD3
:104B8C00C3F30623CE708C700A704B70B8B925092C
:104B9C001609180905EB850504F00F0406EB8606CB
:104BAC0002F00F0200EB800003F00F0304EB45054D
:104BBC0002EB460603EB40038D700E704B7070BC1D
:104BCC00704700BF00280040014B986A5B68704733
:104BDC000028004038B5002839D14A78D00604D5D1
:104BEC0022F010020A32D2B24A70CB78092B4FF065
:104BFC00000007D90A3BDBB20130092BC0B2F9D84F
:104C0C000001C0B20343092A4FEA03434CD90020E8
:104C1C000A3AD2B20130092AC0B2F9D80001C5B2A1
:104C2C0088782A4309284FEA02224FF0000407D95A
:104C3C000A38C0B201340928E4B2F9D82401E4B22C
:104C4C000D7843EA453515432043054309E04D787B
:104C5C00CA788B7808782D0245EA02451D4345EA4F
:104C6C004035124CCA22532362626362FFF714FE72
:104C7C0060B125F07F4020F0C0006060E36823F055
:104C8C008003E360A3689B0604D50120074BFF2239
:104C9C005A6238BDFFF74EFE044B00304FF0FF0256
:104CAC0018BF01205A6238BD0025B9E70028004022
:104CBC0001230022C270037083704370704700BFE1
:104CCC00144B5B68F0B4C3F3074203F03F04C3F327
:104CDC004236C3F304230E708C70CA704B70B8B993
:104CEC001E0925091009B70005EB850504F00F0412
:104CFC0003F00F033E4400EB800002F00F0204EBC4
:104D0C00450503EB460302EB40008D704B70C870F9
:104D1C00F0BC704700280040F0B43E4B00284BD14B
:104D2C009E6816F040066DD1D6701378092B6CD99D
:104D3C0000200A3BDBB20130092BC0B2F9D80001CC
:104D4C00C4B25078234309284FEA03435FD90024A7
:104D5C000A38C0B201340928E4B2F9D82401E7B208
:104D6C0094783843092C4FEA00274FF0000507D9F7
:104D7C000A3CE4B20135092CEDB2F9D82D01EDB2A3
:104D8C00107B092845EA04044FF0000507D90A38BE
:104D9C00C0B201350928EDB2F9D82D01EDB2D2F827
:104DAC0004C092684CEA0202164333431F43284363
:104DBC003C4344EA006013E09B6813F040031ED1AF
:104DCC00D37057689068967815785478127B38436E
:104DDC00304340EA054040EA042040EA02601843B0
:104DEC000C4BCA255322B1F5807F5D625A620CBF11
:104DFC00D8611862074BFF225A62F0BC7047D37817
:104E0C001B04DEE7D67836048FE7002499E70027E9
:104E1C00A6E700BF00280040002301220273C370E4
:104E2C00037043708370836043607047234BB1F50C
:104E3C00807F0CBFDB691B6A2DE9F001DEB203F445
:104E4C008008C3F30545C3F30624C3F3056103F0DF
:104E5C00804C06F07F074FEA184803F080339770B8
:104E6C0082F80380157054701173C2F808C0536037
:104E7C0008BB4FEA151C20090B093F0907EB8707F4
:104E8C0006F00F060CEB8C0C05F00F0500EB800008
:104E9C0004F00F0403EB830301F00F0106EB47074B
:104EAC0005EB4C0C04EB400001EB4303977082F8CC
:104EBC0000C050701373BDE8F0017047002800402B
:104ECC0030B4154B82B053220025CA2401955C6284
:104EDC005A629A68E1B922EA00029A60000A1946FD
:104EEC0000E04AB9CA68019B01330193019BB3F5F9
:104EFC00803F00EA0202F4D1074BDB6803420CBF8F
:104F0C0000200120044BFF225A6202B030BC7047D3
:104F1C00104398600120F5E70028004030B4084B9E
:104F2C000A43CA255324B0F5807F5D625C620CBFD6
:104F3C005A649A64024BFF225A6230BC704700BF1D
:104F4C0000280040044BB0F5807F0CBF586C986C67
:104F5C00C0F30E00704700BF00280040074BCA2169
:104F6C00532259625A629A6822F007029A60996831
:104F7C00FF22084398605A62704700BF0028004027
:104F8C00054B10B45321CA24FF225C6259625DF8B0
:104F9C00044B58615A62704700280040014B586915
:104FAC0080B270470028004010B4144983B05323DA
:104FBC000024CA2201944A624B628B68C8B923F45C
:104FCC0080638B6000E04AB9CA68019B013301938E
:104FDC00019BB3F5803F02F00402F4D1074BD86873
:104FEC00C0F38000054BFF225A6203B05DF8044BFE
:104FFC00704743F480638B600120F3E70028004086
:10500C00094B10B45322CA245C625A629A685DF848
:10501C00044B22F480229A609A6811430843FF21C2
:10502C0098605962704700BF00280040024B986896
:10503C0000F48020704700BF00280040094B10B4DA
:10504C005322CA245C625A629A685DF8044B22F4BB
:10505C00E0029A609A6811430843FF2198605962F4
:10506C00704700BF0028004070B50A4CCA22532379
:10507C006262636205460E46FFF70EFC30B13543A3
:10508C00A561E36823F08003E3600120014BFF225C
:10509C005A6270BD0028004038B50E4CCA2253230A
:1050AC00626263620546FFF7F7FB50B1A36865B90E
:1050BC0023F08003A360074BDA6822F08002DA60E9
:1050CC000120044BFF225A6238BD43F08003A360D9
:1050DC00F1E700BF002800400A4B5322CA21596255
:1050EC005A629A6830B922F400029A60054BFF228A
:1050FC005A62704742F400029A60024BFF225A62D5
:10510C00704700BF00280040074BCA215322596248
:10511C005A629A6822F400229A609968FF22084326
:10512C0098605A62704700BF0028004030B4114D9F
:10513C00CA2453236C626B62EB68DC030AD5EB6800
:10514C00DB0307D54FF4003301E0013B02D0EC68E0
:10515C00E403FAD4074BDC68E40308D41143084396
:10516C00D8630120034BFF225A6230BC70470020E9
:10517C00F8E700BF002800400B4B9B6823F400634A
:10518C0010B423F0080359B91843074BCA24532110
:10519C00FF225C6259625DF8044B98605A6270475A
:1051AC0043F400631843F0E7002800402DE9F003B6
:1051BC002C4C236B646B03F4800CC3F30549C3F3D1
:1051CC000628C4F3042604F03F0503F07F034FEADE
:1051DC001C4C0027C4F3423481F8009081F8018004
:1051EC008B7081F803C0D770567095701470A8BB83
:1051FC000E784C788B7837092509180906F00F06BC
:10520C0004F00F0403F00F0307EB870705EB85058C
:10521C0000EB800004EB450503EB400006EB470771
:10522C000F704D7088705578907813782E0904099A
:10523C00190906EB860605F00F0504EB840400F053
:10524C000F0001EB810103F00F0305EB460600EBA9
:10525C00440403EB4101567094701170BDE8F003E7
:10526C00704700BF00280040014B986B704700BF8F
:10527C0000280040054B1A6C19B142EA4000186432
:10528C00704722EA40001864704700BF00280040B5
:10529C00044B1A6C19B922EA0000186470471043C9
:1052AC001864704700280040044B1A6C22F4C0525A
:1052BC001A641A6C10431864704700BF0028004031
:1052CC00044B1A6C22F4E0621A641A6C10431864D2
:1052DC00704700BF00280040044B1A6C22F4C042F7
:1052EC001A641A6C10431864704700BF0028004001
:1052FC00054B1A6C18B922F080021A64704742F000
:10530C0080021A64704700BF00280040054B1A6CDD
:10531C0018B942F400421A64704722F400421A642D
:10532C00704700BF0028004082B00022054B01925C
:10533C000193019B03EB80000190019B196002B06B
:10534C00704700BF5028004082B00022054B0192EC
:10535C000193019B03EB80000190019B186802B044
:10536C00704700BF50280040044B1A6C22F4803266
:10537C001A641A6C10431864704700BF0028004070
:10538C00044B1A6C22F400321A641A6C1043186421
:10539C00704700BF00280040044B1A6C22F4802296
:1053AC001A641A6C10431864704700BF0028004040
:1053BC0010B5184CCA22532362626362E3681A0761
:1053CC000AD5E3681B0707D54FF4805301E0013B76
:1053DC0002D0E2681207FAD40E4AD36813F008031D
:1053EC0013D19468E40604D50A4AFF211846516289
:1053FC0010BD0143D162FFF79DFA064A00304FF011
:10540C00FF0118BF0120516210BD024AFF2100208C
:10541C00516210BD00280040114B10B45322CA2415
:10542C005C625A629A6881B920F0040122EA010296
:10543C009A601A6C00F0040022EA00001864084B11
:10544C005DF8044BFF225A62704720F004010A43B6
:10545C009A601A6C00F0040010431864EFE700BF68
:10546C0000280040044A054BD268134003420CBF8D
:10547C0000200120704700BF002800407F3F010042
:10548C00054BDA6880B240F0800002F0800262EADC
:10549C000002DA60704700BF002800400C4B1A6C09
:1054AC00996802F0040210B402EAD032DC6800EA17
:1054BC000103134308D0A4B214EA10140CBF00204B
:1054CC0001205DF8044B704718465DF8044B70479B
:1054DC0000280040054BDA68C0F30F1040F0800044
:1054EC0002F0800262EA0002DA6070470028004095
:1054FC0008B54FF400600121FFF72AF94FF4006062
:10550C000021BDE80840FFF723B900BFF0B40B4AF7
:10551C008768D0F804C0C66805680469017D5368C3
:10552C004CEA07003043284323F4FD43204323F087
:10553C007F0303430B435360F0BC7047002C0140C6
:10554C0000230375036043608360C360036170478D
:10555C00014B1860704700BFA0802542014B1860BA
:10556C00704700BF002C0140024B186800F003008C
:10557C00704700BF002C0140094B026830B49A60A0
:10558C0085684168C468DA6800692943214322F4BC
:10559C00FF62014322F007020A43DA6030BC704715
:1055AC00002C01400023036043608360C3600361EF
:1055BC00704700BF014B1869C0B27047002C014006
:1055CC00044B82B00344002201920193019B1868A2
:1055DC0002B07047142C0140094B026830B45A6277
:1055EC0042689A62C56882680469D96A40692A432C
:1055FC002243024321F0F7010A43DA6230BC7047C0
:10560C00002C014000234FF0FF3280E80C00836037
:10561C00C360036143617047014B186B704700BF57
:10562C00002C0140014BD3F880007047002C014046
:10563C00014BC3F880007047002C0140014B986C63
:10564C00704700BF002C0140014B1860704700BF31
:10565C00A0852542014B1860704700BFA4852542E8
:10566C00014B1860704700BFA8852542014B18609C
:10567C00704700BFAC852542014B1860704700BFD6
:10568C00AC812542014B1860704700BFB0812542A8
:10569C0000F00100024B80F001001860704700BF61
:1056AC00B4812542014B1860704700BFB881254278
:1056BC00014B1860704700BF8C852542044BDA6B98
:1056CC0019B922EA0000D86370471043D8637047B9
:1056DC00002C0140034B5B6B18420CBF00200120D7
:1056EC00704700BF002C0140014B9863704700BF0E
:1056FC00002C0140034B5B6B18420CBF00200120B7
:10570C00704700BF002C0140014B9863704700BFED
:10571C00002C014008B52D4B98421BD02C4B9842C5
:10572C0024D02C4B98422DD02B4B984236D02B4B5F
:10573C0098423FD02A4B984200D008BD4FF400103D
:10574C000121FFF705F84FF400100021BDE80840D7
:10575C00FEF7FEBF4FF480500121FEF7F9FF4FF426
:10576C0080500021BDE80840FEF7F2BF4FF48040A6
:10577C000121FEF7E1FF4FF480400021BDE8084015
:10578C00FEF7DABF4FF400400121FEF7D5FF4FF4CE
:10579C0000400021BDE80840FEF7CEBF4FF400509A
:1057AC000121FEF7D5FF4FF400500021BDE8084061
:1057BC00FEF7CEBF4FF480100121FEF7C9FF4FF466
:1057CC0080100021BDE80840FEF7C2BF0030014048
:1057DC0000380040003C00400034014000500140C3
:1057EC00005401402DE9F007B1F802A0B1F8009087
:1057FC00B1F804800F894E898D89CC89B1F806C027
:10580C000A8A03884AEA090141EA080141EA0C01C3
:10581C00394331432943214303F441530B439BB296
:10582C000380838B23F400631B041B0C8383BDE870
:10583C00F0070282704700BF838B8A6823F47B6376
:10584C0023F00F031B042DE9F0031B0C02248383AC
:10585C000484B0F81CC0A2421FFA8CFC54D0304B0C
:10586C008C889D68002C0CBF4FF001084FF002088B
:10587C002E0244D42A4BD3F88460D3F884905F680A
:10588C005D686D024CBF274D274D07F03F07C6F3EF
:10589C008816B5FBF7F7C9F3027306FB07F6B6FBE0
:1058AC00F3F6CB88B3F5007F31D04FEA4815B6FB41
:1058BC00F5F505EB85056D00B5FBF2F2053292B2FC
:1058CC001A4DA5FB0262D2085508AE1E02F0010269
:1058DC00FD2E94BF45EA022202220F884E888D8944
:1058EC004CEA070141F4006131432943134389B267
:1058FC000C439BB203848483BDE8F00370479D681E
:10590C0025F400059D60B5E78C88CB88E5E7360A61
:10591C0006EB86067600B6FBF2F2053292B2CFE7C2
:10592C000038024000127A000024F400CDCCCCCC1C
:10593C00002307220282038043808380C38003817B
:10594C0043818381C38170470023022282600380DC
:10595C0043808380C3808381704700BF038829B94B
:10596C0023F040031B041B0C038070479BB243F0D5
:10597C0040030380704700BF838B29B923F48063F5
:10598C001B041B0C838370479BB243F4806383839B
:10599C00704700BF038823F400631B041B0C0380B7
:1059AC0003889BB219430180704700BFB1F5804F4B
:1059BC00038805D023F480431B041B0C0380704721
:1059CC009BB243F480430380704700BF4FF6FF63E4
:1059DC009942038804D09BB243F4807303807047D0
:1059EC0023F480731B041B0C03807047838829B934
:1059FC0023F004031B041B0C838070479BB243F001
:105A0C0004038380704700BF838829B923F01003F7
:105A1C001B041B0C838070479BB243F010038380E4
:105A2C00704700BF838B23F47B6323F00F031B04AD
:105A3C0002221B0C83830284838B0A8830B44D882A
:105A4C008C8889899BB22B4343F4006322F4007247
:105A5C00234392B20B43002A9BB214BF00224FF493
:105A6C0080721343838330BC704700BF808980B23F
:105A7C00704700BF81817047038829B923F4005314
:105A8C001B041B0C038070479BB243F40053038030
:105A9C00704700BF03889BB243F480530380704768
:105AAC00012914BF008B808A80B27047008A80B2B3
:105ABC00704700BF83889BB21AB923EA0101818029
:105ACC0070471943818070470123090903FA01F1DA
